:020000040800F2
:1000000078A90020D102000841080008250800084E
:100010003F0800087D0500082917000800000000BF
:10002000000000000000000000000000290200089D
:10003000B5060008000000006D020008390F000836
:10004000EB020008EB020008EB020008EB020008DC
:10005000EB020008EB020008EB020008EB020008CC
:10006000EB020008EB020008EB020008EB020008BC
:10007000EB020008B1050008EB020008EB020008E3
:10008000EB020008EB020008EB020008EB0200089C
:10009000EB020008EB020008EB020008EB0200088C
:1000A000EB020008EB020008EB020008EB0200087C
:1000B000EB020008EB020008EB020008EB0200086C
:1000C000EB020008EB020008EB020008EB0200085C
:1000D000EB020008EB020008EB020008EB0200084C
:1000E000EB020008EB020008EB020008EB0200083C
:1000F000EB020008EB020008EB020008EB0200082C
:10010000EB020008EB020008EB020008EB0200081B
:10011000EB020008EB020008EB020008EB0200080B
:10012000EB020008EB020008EB020008EB020008FB
:10013000EB020008EB020008EB020008EB020008EB
:10014000EB020008EB020008EB020008EB020008DB
:10015000EB020008EB020008EB020008EB020008CB
:10016000EB020008EB020008EB020008EB020008BB
:10017000EB020008EB020008EB020008EB020008AB
:10018000EB020008EB02000800F002F800F03CF877
:100190000AA090E8000C82448344AAF10107DA45E2
:1001A00001D100F031F8AFF2090EBAE80F0013F0F8
:1001B000010F18BFFB1A43F0010318474429000040
:1001C00064290000103A24BF78C878C1FAD85207D1
:1001D00024BF30C830C144BF04680C6070470000C1
:1001E0000023002400250026103A28BF78C1FBD840
:1001F000520728BF30C148BF0B6070471FB502F0DF
:1002000079FC1FBD10B510BD00F07CF91146FFF759
:10021000F5FF01F0CDFA00F09AF903B4FFF7F2FF11
:1002200003BC00F09DF90000234B19680868B0E892
:10023000F04F80F309884FF0000080F31188704779
:100240000000000003480068006880F3088862B678
:1002500000DF00BF08ED00E0DFF80C00016841F4AA
:1002600070010160704700BF88ED00E0EFF3098086
:10027000114B1A681EF0100F08BF20ED108A20E9FC
:10028000F04F106008B54FF0140080F3118802F0B1
:1002900089F84FF0000080F31188BDE80840196824
:1002A0000868B0E8F04F1EF0100F08BFB0EC108ADD
:1002B00080F30988704700BF400000204FF0140011
:1002C00080F3118870474FF0000080F31188704769
:1002D0000948804709480047FEE7FEE7FEE7FEE7DA
:1002E000FEE7FEE7FEE7FEE7FEE7FEE70448054916
:1002F000054A064B70470000590F000889010008A5
:1003000078A3002078A9002078A5002078A50020F7
:10031000032A40F2308010F0030C00F0158011F831
:10032000013BBCF1020F624498BF11F801CB00F809
:10033000013B38BF11F8013BA2F1040298BF00F85D
:1003400001CB38BF00F8013B11F0030300F025801A
:10035000083AC0F0088051F8043B083A51F804CB41
:10036000A0E80810F5E7121D5CBF51F8043B40F807
:10037000043BAFF30080D20724BF11F8013B11F812
:1003800001CB48BF11F8012B24BF00F8013B00F856
:1003900001CB48BF00F8012B704710B5203AC0F0E0
:1003A0000B80B1E81850203AA0E81850B1E8185076
:1003B000A0E81850BFF4F5AF5FEA027C24BFB1E8B3
:1003C0001850A0E8185044BF18C918C0BDE8104024
:1003D0005FEA827C24BF51F8043B40F8043B08BF2D
:1003E0007047D20728BF31F8023B48BF11F8012BF4
:1003F00028BF20F8023B48BF00F8012B704702F0ED
:10040000FF0343EA032242EA024200F030B810B58B
:10041000044610F0030F08BF11F0030F40F01580E1
:100420004FF0013E121FC0F20E8051F8043BA3EBC7
:100430000E0C2CEA030C1CEACE1C08BF40F8043B4F
:10044000F0D0A1F1040102F10402521E08DB11F800
:10045000013B002B00F8013BF7D1114600F005F8F5
:10046000204610BD7047704770474FF000020429C6
:10047000C0F0128010F0030C00F01B80CCF1040CD3
:10048000BCF1020F18BF00F8012BA8BF20F8022B07
:10049000A1EB0C0100F00DB85FEAC17C24BF00F8AD
:1004A000012B00F8012B48BF00F8012B70474FF0DB
:1004B000000200B5134694469646203922BFA0E8B4
:1004C0000C50A0E80C50B1F12001BFF4F7AF0907C0
:1004D00028BFA0E80C5048BF0CC05DF804EB8900B1
:1004E00028BF40F8042B08BF704748BF20F8022BF4
:1004F00011F0804F18BF00F8012B7047004870477B
:1005000014A300207546FFF7F9FFAE4605006946C3
:10051000534620F00700854618B020B5FFF7E6FEE9
:10052000BDE820404FF000064FF000074FF00008F4
:100530004FF0000B21F00701AC46ACE8C009ACE875
:10054000C009ACE8C009ACE8C0098D46704710B5D9
:100550000446AFF300802046BDE81040FFF75DBEC3
:1005600001491820ABBEFEE72600020070470000DC
:100570000149085C70470000E8A20020FEE7000087
:1005800002490988884300D001207047A800002054
:1005900000B50346184600F055F9024698B2FFF739
:1005A000EFFF104000BD0121880300F075BB000083
:1005B00070B50A4D286880020ED5094901200860EF
:1005C000084C0021204600F02EF9218841F40071EA
:1005D00021804FF40010A86070BD00000060024050
:1005E000C400002000580040074A904201D207484A
:1005F00001E005481038064A8B0001EA020101D5E6
:10060000C160704781607047106402400060024022
:100610007D0F7D0F002904D0016841F001010160C8
:100620007047016821F00101016070470246002017
:10063000084B9A4201D2084A01E0064A103A8B0060
:1006400001D5526800E01268044B1A400A4200D0FB
:100650000120704710640240006002407D0F7D0F52
:1006600030B50368124A1340CC680A682243D1E9C6
:1006700005452C432243CC6922430C6A22434C6A31
:1006800022438C6A22434C6B22438C6B22431A43D5
:100690000260426922F00703D1E90B2422431A4386
:1006A00042610A6942604A6882608968C16030BDFF
:1006B0003F801CF0704710B51020FFF769FF08B1AC
:1006C000102010BD2020FFF763FF08B1202010BDCF
:1006D0004020FFF75DFF08B1402010BD8020FFF7EC
:1006E00057FF08B1802010BD4FF480742046FFF7FB
:1006F0004FFF08B1204610BD4FF400742046FFF7AD
:1007000047FF08B1204610BD4FF480642046FFF734
:100710003FFF08B1204610BD4FF400642046FFF7AC
:1007200037FF08B1204610BD4FF480542046FFF734
:100730002FFF08B1204610BD4FF400542046FFF7AC
:1007400027FF08B1204610BD4FF480442046FFF734
:100750001FFF08B1204610BD4FF400442046FFF7AC
:1007600017FF08B1204610BD002010BD2DE9F04153
:10077000002201274FF0030C07FA02F50B682B400B
:10078000AB422CD1066853000CFA03F4A643066072
:100790000E79D0F800809E4046EA080606600E7981
:1007A000012E01D0022E12D18668A64386604E79B2
:1007B000D0F808809E4046EA080686604668AE4348
:1007C000466045688E799640B6B235434560C56847
:1007D000A543C560CC799C40C3681C43C460521CCF
:1007E000102AC9D3BDE8F08110B54B07DB0E9A4043
:1007F000C90800EB8100016A0F249C40A1430162FB
:10080000016A1143016210BD0246002012690A42CA
:1008100000D001207047002A01D08161704709048F
:1008200081617047FEE7002904D0018841F48061AE
:1008300001807047018821F4806101807047FEE7E4
:100840007047000004494A8809884A40024201D0A2
:100850000120704700207047A80000207CB5069D4D
:100860000F4C206121606260A360E5601143194371
:10087000009101268DF8046000258DF806500321B3
:100880008DF805106946FFF771FFE06800908DF85C
:1008900004508DF8066069462069FFF767FF7CBD4C
:1008A00000A300202DE9F04186B02BA0D0E9001272
:1008B0008068CDE90312059000200090019002901D
:1008C0000A2001F0B9FB274D03AFA5F118062889CE
:1008D000012281B22869FFF79EFFA888012281B218
:1008E0002869FFF798FF2888002281B22869FFF75E
:1008F00092FF0024385D00F019FF3055641C092C6C
:10090000F8DB707879280AD10024E84618F804004A
:1009100000F00CFF31194872641C0C2CF6DB28889F
:10092000012281B22869FFF776FF70780721B1EBC9
:10093000101F0AD10C4801884180F178327901EB0F
:100940000221018006B0BDE8F08100F00FF83220EE
:1009500001F072FBBBE70000014200000000000054
:100960000000000000A30020A800002010B5052111
:10097000074800F00FF806480921401D00F00AF86A
:1009800003480921BDE810400E3000F003B8000014
:10099000AC0000202DE9F04105460E4600240E4F24
:1009A0000022388881B23869FFF735FF0A2001F04C
:1009B00043FB03E0285D00F0B9FE641CB442F9DBA0
:1009C0000A2001F039FB3888012281B23869BDE87C
:1009D000F041FFF720BF000000A300202DE9FC47F5
:1009E0000121072000F03CF90121072000F046F921
:1009F0000F20009002248DF8044000258DF805504A
:100A00008DF8065001268DF80760844F69463846F8
:100A1000FFF7ACFE012203213846FFF7E5FE012275
:100A200002213846FFF7E0FE012211463846FFF763
:100A3000DBFE012200213846FFF7D6FE4FF4707727
:100A400000978DF804408DF805508DF806508DF80C
:100A50000760DFF8CC8169464046FFF787FE022237
:100A600009214046FFF7C0FE022208214046FFF759
:100A7000BBFE022207214046FFF7B6FE02220621F6
:100A80004046FFF7B1FE00978DF804408DF8055001
:100A90008DF806508DF80760624C69462046FFF7D6
:100AA00065FE022209212046FFF79EFE0222082150
:100AB0002046FFF799FE022207212046FFF794FE09
:100AC000022206212046FFF78FFE574841F2BF2140
:100AD00041606F2101800581458001462705384628
:100AE00000F08CFBDFF844814F49404600F086FB64
:100AF000DFF83C914C49484600F080FB4A4C6020AE
:100B00000C342080A58166807825A5602146384672
:100B100000F068FA0821384600F098FA4FF416768B
:100B2000A6602146384600F097FA0821384600F0C2
:100B3000D7FAA5602146384600F0DCFA082138468D
:100B400000F01AFBA5602146384600F01BFB082187
:100B5000384600F049FBA6602146404600F042FAC4
:100B60000821404600F072FAA6602146404600F097
:100B700073FA0821404600F0B3FAA66021464046C9
:100B800000F0B8FA0821404600F0F6FAA5602146C8
:100B9000404600F0F7FA0821404600F025FBA5602A
:100BA0002146484600F01EFA0821484600F04EFA59
:100BB000A6602146484600F04FFA0821484600F05A
:100BC0008FFAA5602146484600F094FA082148466D
:100BD00000F0D2FAA6602146484600F0D3FA082178
:100BE000484600F001FB0121384600F0E3F90121FD
:100BF000404600F0DFF90121484600F0DBF9012111
:100C0000384600F0E3F90121404600F0DFF9012108
:100C1000484600F0DBF9BDE8FC8700000000024018
:100C20000008024000040240880100200004004047
:100C300000080040014908627047000000000E42B1
:100C40000149086070470000A4000E4201460020E0
:100C5000024A52680A4200D00120704700700040EA
:100C6000054A002903D011680143116070471168DB
:100C7000814311607047000030380240054A002966
:100C800003D01168014311607047116881431160FE
:100C90007047000040380240054A002903D011681F
:100CA0000143116070471168814311607047000073
:100CB0004438024070B5244B196801F00C01234CF4
:100CC00000291ED0661004291DD008291DD00460FB
:100CD000196801F0F00109091D4A545C0168E140FE
:100CE00041601C6804F4E054A40A145D21FA04F481
:100CF00084601B6803F460435B0BD25CD140C1602D
:100D000070BD0460E4E70660E2E70F4A121F116855
:100D1000C1F38055116801F03F0135B1B6FBF1F127
:100D20001468C4F38814614305E0B4FBF1F114685E
:100D3000C4F3881461431268C2F30142521C52008A
:100D4000B1FBF2F10160C3E7083802400024F4006F
:100D5000300000204FF06409DFF88C80234C244DD4
:100D60000027A8F11806B088C0F303116031216094
:100D7000000AC4F80100C4F80270C4F8037000212E
:100D80000A1918F801005060491CC9B20429F7D3A8
:100D90001748103890ED010A84ED020A90ED020A1E
:100DA00084ED030A90ED030A84ED040A90ED000A35
:100DB00084ED050A2878FE280ED1A87EEF280BD1F5
:100DC0000121481E04EB400035F81120C0F8002135
:100DD000491CC9B20D29F4D3B06801F039FA48466C
:100DE00001F02AF9BFE7000018000020004002408F
:100DF000E000002008B564268020009040232022D7
:100E000010211248FFF72AFD114D05F11804FFF7D4
:100E100049FDFFF750FC10B1FFF74DFCA8800720FB
:100E2000FFF7A6FB20700820FFF7A2FB60700520EB
:100E3000FFF79EFBA0700620FFF79AFBE070A86802
:100E400001F006FA304601F0F7F8E0E70000024052
:100E50000000002010B501218804FFF701FF0121E7
:100E60000807FFF70BFF0120FFF7E4FE0120FFF763
:100E7000E7FE0820FFF7EAFE0028FAD010BD0000C8
:100E80000CB50022019200922749086840F4803096
:100E900008604FF4A043086800F400300090019807
:100EA000401C0190009810B901989842F3D108684D
:100EB000800302D50120009000E0009200980128F4
:100EC00031D119484030026842F080520260174820
:100ED000026842F44042026013480830026802602F
:100EE000026842F400420260026842F4A0520260CA
:100EF000021F0F4B13600A6842F080720A600A6892
:100F00009201FCD50B4A40F205711160016821F095
:100F100003010160016841F0020101600168C1F351
:100F200081010229FAD10CBD003802400070004056
:100F300019544007003C024010B506494FF080505C
:100F40000860FFF7BBF901F093F8BDE81040FFF728
:100F5000BAB9000004ED00E010B51248016841F490
:100F6000700101601048016841F0010101600E4A02
:100F700000210832116002680C4B1A400260031D08
:100F80000B4A1A60026822F48022026006480C3084
:100F90000160FFF775FF03494FF00060803908607A
:100FA00010BD000088ED00E000380240FFFFF6FEB3
:100FB00010300024002904D0018841F08001018014
:100FC0007047018821F0800101807047002904D01A
:100FD000018841F0010101807047018821F0010181
:100FE0000180704730B5028C22F001020284058C2A
:100FF0008388028B22F0700222F003020C881443D3
:1010000025F002028D8915434A882A430D4DA842D6
:1010100002D00D4DA8420FD122F00805CA892A43FB
:1010200022F004058A882A4323F4807323F4007392
:101030000D8A1D434B8A2B43838004838968416357
:10104000028430BD0000014000040140028B22F008
:1010500008020A430283704770B5028C22F0100226
:101060000284028C8388048B24F4E04424F44076C8
:101070000D884FF6FF7404EA0525354322F020025F
:101080008E8904EA061616434A8804EA021232439D
:10109000114EB04202D0114EB04217D122F0800260
:1010A000CE8904EA0616164326F040068A8804EA2A
:1010B0000212324323F4806323F400630E8A04EAAD
:1010C00086061E434B8A04EA8303334383800583E9
:1010D00089688163028470BD000001400004014002
:1010E000028B22F400624FF6FF7303EA01211143E1
:1010F0000183704770B5028C22F480720284028CE6
:101100008388848B24F0700424F003040D88254325
:1011100022F400728E894FF6FF7404EA0626164305
:101120004A8804EA02223243114EB04202D0114EE4
:10113000B04217D122F40066CA8904EA022232437F
:1011400022F480668A8804EA0222324323F4805320
:1011500023F400530E8A04EA06161E434B8A04EA5F
:1011600003133343838085838968C163028470BD20
:101170000000014000040140828B22F008020A4373
:101180008283704770B5028C22F480520284058CF1
:101190008288838B23F4E04323F440760C884FF657
:1011A000FF7303EA0424344325F400558E8903EACF
:1011B00006362E434D8803EA05353543084EB042C6
:1011C00002D0084EB04205D122F480460A8A03EAD2
:1011D000821232438280848389680164058470BDF1
:1011E0000000014000040140828B22F400624FF6AF
:1011F000FF7303EA012111438183704730B50288F0
:10120000164C174DA0420DD0A8420BD0B0F1804F24
:1012100008D0144B984205D0134B984202D0134B80
:10122000984203D122F070034A881A43104B984227
:1012300006D0104B984203D022F440730A891A4317
:1012400002804A68C2620A880285A04201D0A84290
:1012500001D1897A01860121818230BD00000140DF
:10126000000401400004004000080040000C004061
:10127000001000400014004086B06420059000F08B
:101280007BF8394E502070704920B072452070773D
:101290000A20B077DFF8D490354C364D06F12007A0
:1012A0004FF0010AA6F11C08002050F8091032186E
:1012B0009170401C0828F8D30020B87609EB800113
:1012C00091ED020A06EB800181ED030AB5EEC00A3A
:1012D000F1EE10FA05DBBA7E0AFA00F18A43BA761B
:1012E00004E0B97E0AFA00F21143B976401C0428E2
:1012F000E4DB1D4914220C316846FFF74EF81A480A
:101300002C382C300EC8143000F0C2FD02E0002052
:1013100001F00CF821462846FFF788F90128F6D19C
:1013200098F80000FE2816D198F81A00EF2812D17C
:1013300001220D49AC3101F1180C38F8120001EB13
:10134000020B030A0BF8013C0CEB020303F8010C3F
:10135000521C0D2AF1DB21462846FFF745F9059876
:1013600000F06AFEA0E70000FC0000200040024000
:1013700020000020706002402DE9FC5F01214B48F5
:10138000FFF76EFC01218804FFF778FC4FF48076AC
:10139000009602248DF8044000258DF806500127A0
:1013A0008DF807708DF80540DFF8048169464046E6
:1013B000FFF7DCF9210200918DF8044069464046B0
:1013C000FFF7D4F9072208214046FFF70DFA07225C
:1013D00009214046FFF708FA36484FF4E131016031
:1013E0008580C580058185810C2141810146324877
:1013F00000F07CF82F4C4FF060603C3C2060DFF840
:10140000B89009F10409C4F80490A4F12000A06088
:101410004020E0601D20206165614FF4806AC4F8BF
:1014200018A0E561256266624FF40038C4F8288090
:10143000E56227636563A563DFF880B021465846FF
:10144000FFF70EF9F0042060C4F80490A4F15C00EA
:10145000A060E5601C2020616561C4F818A0E5610A
:1014600025626662C4F82880E56227636563A56328
:101470002146124C483C2046FFF7F2F801210E4865
:1014800000F01EF8012280210B4800F025F801220F
:101490004021094800F020F801215846FFF7BAF82A
:1014A00001212046FFF7B6F8BDE8FC9F08002000A8
:1014B000000C0240780100200048004070600240AB
:1014C000002904D0818941F40051818170478189CC
:1014D00021F4005181817047002A03D0828A0A4397
:1014E00082827047828A8A43828270477FB504462F
:1014F0000D46208A20F44051E88808432082A089C4
:1015000041F20C618843A9882A8911436A89024300
:101510001143A181A08A20F44071A8890843A082C8
:101520006846FFF7C7FB1E48844202D01D4884422C
:1015300001D1039800E00298A189090408D500EBC5
:10154000C00101EB001029684900B0FBF1F007E091
:1015500000EBC00101EB001029688900B0FBF1F03D
:101560006422B0FBF2F109010B096FF018056B431F
:1015700000EB8300A3891D044FF0320307D503EB72
:10158000C000B0FBF2F000F00700084306E003EBF8
:101590000010B0FBF2F000F00F00084320817FBD87
:1015A00000100140001401400EB54FF06408002106
:1015B000594F0025282346226E46A7F10C04755486
:1015C00070184370827065546018437082707D5447
:1015D000781843708270C91C0C29F0DBFFF7FEF904
:1015E0000021785C6054725C904200D26254491CC5
:1015F0000C29F6DB60799DF80510474D401A8430C0
:101600002C3DA8604FF0804929464846FFF7EAFC88
:1016100060789DF80110401AA0F253204042A86063
:1016200029464846FFF718FDA0789DF80210401A99
:101630008330A86029464846FFF75CFDE0789DF8B6
:101640000310401A9C30A86029464846FFF79AFDCF
:1016500020799DF80410401AA0F229204042A86089
:10166000DFF8B89029464846FFF7BCFC20789DF883
:101670000010401AA0F253204042A8602946484674
:10168000FFF7EAFCA0799DF80610401AC0F50A7031
:10169000A86029464846FFF72DFDE0799DF8071020
:1016A000401AA230A86029464846FFF76BFD607AD1
:1016B0009DF80910401A8530A860DFF8649029462B
:1016C0004846FFF78FFC207A9DF80810401AC0F5B5
:1016D0001170A86029464846FFF7BEFCA07A9DF825
:1016E0000A10401A9330A86029464846FFF702FDC9
:1016F000E07A9DF80B10401AA0F256204042A860F4
:1017000029464846FFF73EFD0648806800F0A0FDE8
:10171000404600F091FC63E7C00100200008004053
:101720000004004000000020FEE700002DE9F04723
:101730008046002700241D4E4FF0010909FA04F5E8
:1017400015EA080F06D03089012281B23069FFF70F
:1017500062F805E03089002281B23069FFF75BF85A
:10176000B088002281B23069FFF755F8012000F0FF
:1017700063FCB08981B23069FFF746F808B13D4398
:10178000EFB2B088012281B23069FFF744F8641CDF
:10179000082CD3DB3089012281B23069FFF73BF896
:1017A000082000F049FC3846BDE8F08700A300207F
:1017B0001FB5FEF7F8FEFFF74DFB00241948CDE9F1
:1017C00001040225EE012346324617A11B4800956D
:1017D000039400F0FDFF13480023001DCDE9010430
:1017E000324617A119480095039400F0F1FF0D4807
:1017F00000230830CDE90104324615A117480095B1
:10180000039400F0E5FF074800230C30CDE9010404
:10181000324613A116480095039400F0D9FF00F05A
:1018200059FDFEE708000020526561645772697433
:10183000652053657269616C000000007912000830
:101840005570646174652050574D0000A91500085B
:10185000526561642050533200000000F50D00080D
:10186000526561646E5772697465205352414D0030
:10187000550D000870B504460B4D28684460E868B3
:10188000844206D22968A86B091DBDE8704000F0AB
:1018900051BB2968686B091D00F04CFB286B844222
:1018A00000D22C6370BD00004000002070B50646D9
:1018B0000D464C2000F086FA044644B1B60045B10E
:1018C0002846206348B1A5223146FEF798FD204600
:1018D00070BD304600F076FAF3E7204600F066FB74
:1018E0000024F4E710B500F04BFB0C4C206880B9E5
:1018F0000B4800F011FB0A48143000F00DFB0848BB
:10190000A0601430E06000220C210A2000F09AFD53
:101910002060BDE8104000F03DBB00007C000020CE
:10192000BC02002070B5124E124D1CE000F032FDDA
:10193000306820B1002401F035F8A4B901E0012499
:10194000F9E700F01DFBF068C468201D00F0D1FA33
:10195000A868401EA8606868401E686000F01AFB16
:10196000204600F04BF868680028DFD170BD000009
:10197000940200204000002030B40C460368002B85
:101980000CD0026CC1681144C1604568A94200D303
:10199000C360C168204630BCFEF7BABC30BC70479B
:1019A00010B504461046226C002A11D0C8B1E06878
:1019B000FEF7AEFCE168206C091AE16022689142F2
:1019C00002D26168081AE060A06B401CA06310BDE1
:1019D00020680028F8D1606800F0E0FB002060601B
:1019E000F2E7A068FEF794FC216CA0680844A060B0
:1019F00061688842E8D32068A060E5E710B5044636
:101A0000206B00F0D3FA2046BDE8104000F0CEBABB
:101A100007498A681168002904D00021016019B1C2
:101A2000002070470121F9E7D06800687047000086
:101A30007C000020044CFFF775FF20680128FAD9CC
:101A400000F0D4FAF7E70000F401002070B5044676
:101A500015460A2204F13400FEF7D9FC002084F870
:101A60003D00052D00D30425E562A564201D00F08E
:101A70005EFA04F1180000F05AFA2461C5F105007D
:101A8000A061646270BD000070B50024124D04EBCB
:101A9000840005EB800000F03FFA641C052CF6D3AF
:101AA0000D48643000F038FA0B48783000F034FA12
:101AB00009488C3000F030FA0748A03000F02CFACA
:101AC0000548B43000F028FA034904486431416302
:101AD0001431816370BD0000F4010020400000203B
:101AE00070B50024416000610C4D91420AD8D11AB2
:101AF0008269914201D301240EE0011DE86800F0E3
:101B000019FA09E09A4203D2994201D3012403E071
:101B1000011DA86800F00EFA204670BD7C00002070
:101B200010B5044600F02CFAA06B20B1002400F0A0
:101B300031FA204610BD0124F9E710B5044600F043
:101B40001FFAA06BE16B884201D1012400E0002460
:101B500000F020FA204610BDF8B505460E461248A2
:101B60008068C068C468201D00F0C3F9E0690128DE
:101B700011D1A0692B46411932462046FFF7B0FF2C
:101B8000012808D100200346014600902A4620463D
:101B900000F086FF28B1616A01B02046BDE8F04040
:101BA0000847FEF78BFBFEE77C00002070B586B08F
:101BB00002A800F073F80546244E3DE0059C24B1D0
:101BC000606910B1201D00F094F9039830B101282C
:101BD00032D0022820D003282ED12AE00498A1690F
:101BE000034601442A462046FFF77AFF012823D105
:101BF000616A20468847E06901281DD100200090D5
:101C00000498A169002342181946204600F048FFB5
:101C100090B9FEF753FBFEE70498A06130B141197B
:101C20002B462A462046FFF75BFF05E0FEF746FB02
:101C3000FEE7204600F0BAF900231A4603A93068EF
:101C400000F028FC0028B9D106B070BD7C0000204F
:101C5000F8B505460E4600F09DFB684600F01EF8FC
:101C60000446009810B100F09DFEF8BD46B9A542AB
:101C700006D800F097FE21462846FFF76DFFF8BD15
:101C80000548291B006800F0B9F900F08BFE002818
:101C9000F5D100F0ABF9F8BD7C00002070B5054629
:101CA00000F028FE0446074E7068844204D200F01B
:101CB0001BF80120286001E00020286074602046A5
:101CC00070BD00007C000020054806490068B0FB9C
:101CD000F1F14FF0E020491E416107210161704799
:101CE0001C000020A0860100F8B5174E20E0C16856
:101CF0000D68C068C468201D00F0FBF8616A2046CA
:101D00008847E069012813D1A0692844A84206D970
:101D100060602461211DB06800F00CF908E000202B
:101D20000346014600902A46204600F0B9FE40B125
:101D3000B06801680029DAD1B068F168B160F0607C
:101D4000F8BDFEF7BBFAFEE77C00002008B5684648
:101D5000FFF75EFE0099FFF77BFFFFF727FFF6E72F
:101D600070B5044600F00CF904F124050AE0606A3D
:101D700058B1284600F0E2FD08B100F0CDF9A06CA2
:101D8000401EA064A06C0028F1DC4FF0FF35A56474
:101D900000F000F900F0F4F804F110060AE0206900
:101DA00058B1304600F0CAFD08B100F0B5F9606CDA
:101DB000401E6064606C0028F1DC6564BDE8704022
:101DC00000F0E8B82DE9F0410446002500F0E2FA01
:101DD000274E06F10801706801F1080360B9254833
:101DE0000860002048604FF420425A601860214883
:101DF00042600360012070603CB11034600704D081
:101E000004F00700C0F108000444601E49F6FF72A8
:101E1000904228D2164A0832096801E00A46014673
:101E20004868A04202D208680028F7D199421AD027
:101E300015681035086810604868001B20280ED906
:101E40000B1958604C605C680948083000E0104687
:101E500002685768A742FAD302681A6003604868AC
:101E60003168081A306000F09DFD2846BDE8F08119
:101E700090000020E802002024384FF080730362B5
:101E8000C161002181614260C91E40F8201970477C
:101E90000FB47FB59DF825100170012109AC6218BF
:101EA00052784254491C0929F9DB9DF82E104172E1
:101EB00000216D4604EB810205EB810392ED030ADC
:101EC00083ED000A00EB810215F8216096725E78BE
:101ED000D6729E781673DB785373491C0429E9DBAC
:101EE0009DF84110C1769DF8421001777FBC5DF8E6
:101EF00014FBD0E901219160D0E901125160016920
:101F00004A68824201D182684A6000220261086800
:101F1000401E08600868704700F1080141604FF0FA
:101F2000FF328260C16001610021016070470021C1
:101F30000161704710B50B685A1C02D000F108020D
:101F400002E0026904E05268546824689C42FAD9AD
:101F500053684B6099608A60516008610168491C50
:101F6000016010BD426853684B6043688B605368E2
:101F700099605160416008610168491C01607047C7
:101F800010B5FEF79BF902480168491C016010BDBD
:101F90008C00002004490868401E0860002801D118
:101FA000FEF791B9704700008C00002010B50028A2
:101FB00018D01038044600F0EDF960680A4900E0D6
:101FC00011460A6853688342FAD3086820600C609F
:101FD000054861680838026811440160BDE8104096
:101FE00000F0E0BC10BD00009800002002494FF056
:101FF000805008607047000004ED00E070B50446B2
:102000000D46FFF7BDFF626C4FF00000521C00D17F
:102010006064A26C521C00D1A064FFF7BBFFA06BF0
:1020200020B9294604F1240000F0A0F82046BDE8BC
:102030007040FFF795BE000010B502460020002A50
:102040000DD000F0A7F90948C1688C180068001D80
:10205000FFF74FFF2046FFF70DFC00F0A3FC002820
:1020600003D1BDE81040FFF7C1BF10BD4000002004
:1020700070B5274DE869002803D0286A401C286203
:1020800070BDE868401CE860E8684FF0FF36A0B912
:10209000686B006810B1FEF711F9FEE7686BA96B79
:1020A0006963A863A86A401CA862686B0068A0B155
:1020B000686BC068C06840682863E868296B88421C
:1020C000DED3686B006850B1686BC068C468606834
:1020D000E968814205D2286370BD2E63EDE72E6367
:1020E00070BD201DFFF705FFA06A18B104F11800AC
:1020F000FFF7FFFEE06A6969884200D96861054917
:1021000000EB800001EB8000211DFFF72BFFD8E7DB
:1021100040000020F401002001490120486270477E
:102120004000002070B50D46002810D00D4C2168ED
:102130001831FFF7FFFE2068001DFFF7DAFE681C6C
:1021400008D0E0682844BDE87040FFF793BBFEF775
:10215000B5F8FEE72168BDE87040091D0248FFF7A9
:1021600001BF000040000020A802002070B50D460D
:1021700000280ED0084C21681831FFF7F3FE2068C4
:10218000001DFFF7B6FEE0682844BDE87040FFF789
:1021900071BBFEF793F8FEE74000002010B504463F
:1021A00000281BD0A16CE06A884217D0201DFFF7E1
:1021B000A0FEA06CE062C0F10500A0610849E06AE1
:1021C0004A69904200D94861064900EB800001EB62
:1021D0008000211DBDE81040FFF7C4BE10BD000007
:1021E00040000020F401002070B50446002829D0EA
:1021F000154DE06A2968C96A884223D22868C06AF6
:10220000C0F10500A061E06A104E00EB800061693A
:1022100006EB8000814212D1201DFFF76AFE28687C
:10222000C06AE0626969884200D9686100EB800099
:1022300006EB8000211DBDE87040FFF793BE2868C3
:10224000C06AE06270BD000040000020F401002080
:1022500070B500280CD00446154D2868844225D05E
:10226000FFF78EFE204600F051FB012803D019E055
:10227000FEF724F8FEE7201DFFF73BFEE06A6969E0
:10228000884200D968610B4900EB800001EB8000B7
:10229000211DFFF767FEE06A2968C96A884201D3F9
:1022A000FFF7A4FEBDE87040FFF774BE70BD0000EC
:1022B00040000020F401002010B5002805D004499A
:1022C0008A6A0260C968416010BDFDF7F7FFFEE74A
:1022D000400000207FB500250095019502952B4612
:1022E0004FF480720DA10F48039500F071FA044677
:1022F000012C02D100F0B0FB0446012C07D1FDF700
:10230000DDFF094801218161C56000F07BF8002CE8
:1023100002D1FDF7D3FFFEE77FBD000049444C45E5
:1023200000000000351A00084000002070B5054686
:10233000FFF726FE154E3068854200D10025BDB15D
:102340002C46201DFFF7D5FDA06A18B104F1180036
:10235000FFF7CFFD211D0E48FFF704FEFFF71AFE21
:10236000002D0ED1B06928B1BDE87040FFF73EBE28
:102370003468E6E706480068B168884202D1002068
:10238000306070BDBDE8704000F00CB84000002027
:10239000A80200200248C169491CC16170470000C1
:1023A0004000002010B51549C869002802D001205E
:1023B000486210BD124A04E04869D8B14869401E1D
:1023C0004861486900EB800052F820000028F3D0F3
:1023D000486900EB800002EB80004268526842606E
:1023E00000F108039A4201D1526842604068C06817
:1023F000086010BDFDF762FFFEE70000400000200E
:10240000F401002010B50C48016841F47C01016022
:10241000016841F07C410160FFF756FC074900204C
:102420000860FDF719FF0648016841F0404101606E
:10243000FDF708FF002010BD20ED00E08C0000201B
:1024400034EF00E02DE9F04105460F4690460026A6
:10245000002D18D05020FFF7B5FC04469CB105FBB9
:1024600007F0401CFFF7AEFC206048B1E56327642D
:102470000121204600F09EF884F84D80264602E0B7
:102480002046FFF793FD16B13046BDE8F081FDF719
:1024900015FFFEE72DE9FF4383B0044688469946C1
:1024A0000025002C03D0B8F1000F03D007E0FDF7A2
:1024B00005FFFEE7206C10B1FDF700FFFEE70026E8
:1024C00004F12407FFF75CFDA06B50B3E5684146BB
:1024D0002046FFF751FAB9F1000F0ED0E560606AAF
:1024E00028B1384600F02AFA08B1FFF77FFDFFF760
:1024F00051FD012007B0BDE8F083A06B401EA06332
:10250000206810B900F0E2F9606020690028EED080
:1025100004F1100000F012FA0128E8D1FFF766FD7F
:10252000E5E7059808B125B107E0FFF733FD002086
:10253000E0E701A8FFF7C0FE0125FFF72BFDFFF73D
:1025400029FFFFF71DFD606C401C00D16664A06C84
:10255000401C00D1A664FFF71DFD05A901A800F0ED
:1025600003F930B12046FFF7FBFB00F01BFA002017
:10257000C0E72046FFF7D4FAB0B1206830B9FFF7C2
:10258000FFFC6068FFF730FEFFF704FD3846059951
:10259000FFF7C8FD2046FFF7E3FB00F003FA002831
:1025A00090D1FFF723FD8DE72046FFF7D9FB00F020
:1025B000F9F987E770B504460D46002C1ED0FFF7E9
:1025C000DFFCD4E90F23206802FB030161600021D6
:1025D000A163A060521E02FB0300E060481E60641D
:1025E000A06404F1100065B1FFF796FC04F124002B
:1025F000FFF792FCFFF7CEFC012070BDFDF75EFEF9
:10260000FEE721690029F5D000F098F90128F1D101
:10261000FFF7ECFCEEE72DE9FF4182B004460F46E0
:1026200098460025002C01D01FB107E0FDF746FEBB
:10263000FEE7206C10B1FDF741FEFEE70026FFF734
:102640009FFCA06BE16B884214D24246394620467B
:10265000FFF7A6F9606A38B104F1240000F06EF9C2
:10266000012801D1FFF7C2FCFFF794FC012006B05E
:10267000BDE8F081049808B125B107E0FFF78AFCB6
:102680000020F4E76846FFF717FE0125FFF782FCFC
:10269000FFF780FEFFF774FC606C401C00D166649D
:1026A000A06C401C00D1A664FFF774FC04A9684626
:1026B00000F05AF830B12046FFF752FB00F072F9F3
:1026C0000020D4E72046FFF738FA70B104F110007B
:1026D0000499FFF727FD2046FFF742FB00F062F95F
:1026E0000028ACD1FFF782FCA9E72046FFF738FBB2
:1026F00000F058F9A3E72DE9F04104460E461546CF
:102700001F46002C01D01EB107E0FDF7D7FDFEE704
:10271000206C10B1FDF7D2FDFEE7FDF7CFFDA06BF9
:10272000E16B88421AD23A4631462046FFF738F923
:10273000A06C401C04D0A06C401CA06401240EE0DE
:10274000606A0028FAD004F1240000F0F7F80028AD
:10275000F4D0002DF2D001202860EFE70024FDF72F
:10276000B2FD2046BDE8F08170B504460D46002C50
:1027700010D095B1FFF704FC2868411C10D0134A13
:102780002168936A99420DD06168D368994209D84B
:10279000012416E0FDF792FDFEE7FDF78FFDFEE751
:1027A00000240EE06168D3685B1A834208D2D268C5
:1027B000511A401A28602046FFF77EFD002400E0F1
:1027C0000124FFF7E7FB204670BD00004000002019
:1027D0002DE9FF4F81B08246DDE90E5910999046F0
:1027E0009B46BAF1000F04D0052D05D3FDF766FD19
:1027F000FEE7FDF763FDFEE74046FFF757F80446A6
:10280000304F7CB3216BA8F1010001EB800020F078
:102810000706700702D0FDF751FDFEE7CDF80080F6
:102820002A462046119B0299FFF710F95A46514655
:102830003046FFF721FB2060B9F1000F01D0C9F845
:102840000040FFF79DFBB868401CB860386810B1C5
:10285000B86940B10CE03C60B868012808D1FFF7C6
:1028600013F905E01DE03868C06AA84200D83C6052
:10287000E06A3969884200D93861F96A2164491CE3
:10288000F9627969884200D978610F4900EB8000CC
:1028900001EB8000211DFFF765FB0124FFF77AFBA8
:1028A00001E04FF0FF34012C07D1B86928B1386836
:1028B000C06AA84201D2FFF799FB05B02046BDE8E7
:1028C000F08F000040000020F40100200148006863
:1028D000704700004000002005488169002903D0AE
:1028E000C06918B10220704700207047012070476E
:1028F0004000002010B5FFF743FB0348C468FFF712
:1029000049FB204610BD00004000002010B500210A
:1029100000280AD0084B42699A420AD1806AA3F182
:102920002802904205D018B103E0FDF7C7FCFEE78E
:102930000121084610BD0000A802002070B5C06843
:10294000C468002C12D004F118000646FFF7D1FA33
:10295000124DEA696AB131461148FFF703FBE06A9C
:102960002968C96A884216D3012070BDFDF7A6FC0C
:10297000FEE7201DFFF7BDFAE06A6969884200D9C9
:102980006861074900EB80008C3901EB8000211D54
:10299000FFF7E8FAE3E7002070BD000040000020E8
:1029A000800200202DE9F0410027294EF06900281F
:1029B00007D0FFF7E5FAF069401EF061F06918B141
:1029C00040E0FDF77BFCFEE7B068D8B30025DFF8F8
:1029D00084801DE0D8F80C00C46804F11800FFF7EB
:1029E00088FA201DFFF785FAE06A7169884200D9EC
:1029F0007061184900EB80008C3901EB8000211DCB
:102A0000FFF7B0FAE06A3168C96A884200D301254D
:102A1000D8F800000028DDD1306A28B908E0FFF7B7
:102A200027FB306A401E3062306A0028F7D101254A
:102A3000012D02D0706A012804D1012700207062A4
:102A4000FFF7D4FAFFF7A6FA3846BDE8F081000098
:102A500040000020800200201FB50024FEF742FF46
:102A60000B48006860B100200221CDE900100290FF
:102A700003460A02039007A10848FFF7A9FE04468F
:102A800014B104B0204610BDFDF718FCFEE70000AD
:102A90007C000020546D7220537663004D1D0008A9
:102AA000FEB59446089F06461A460020104D2C6835
:102AB000002C09D00091CDF804C002962AB1002361
:102AC00069462046FFF717FEFEBDFFF705FF012808
:102AD00006D000231A4669462868FFF79CFDFEBD14
:102AE00000233A4669462868FFF795FDFEBD0000C1
:102AF0007C0000204FF04070E1EE100A70470000AB
:102B0000202B000800000020D0000000C4010008B5
:102B1000F02B0008D0000020A8A80000E001000869
:102B200000000000000000000000000000000000A5
:102B3000000000000000000000000000007A030A0E
:102B4000000000000000000001020304060708095D
:102B50000000000001020304010203040607080943
:102B60000000000000000000000000000000000065
:102B70000000000000000000000000000000000055
:102B80000000000000000000000000000000000045
:102B9000FFFFFFFF00000000000000000000000039
:102BA000000000000000000000000000AAAAAAAA7D
:102BB00000A0000000000000000000000000000075
:102BC00000000000000000000000000001430001C0
:102BD00000014400010300000000014300005A5AB4
:102BE0005A5A5A00000000000000000000000000D7
:040000050800018965
:00000001FF
